{"abi":[{"type":"function","name":"allHelper","inputs":[],"outputs":[{"name":"","type":"tuple[]","internalType":"struct AidModule.Helper[]","components":[{"name":"id","type":"uint256","internalType":"uint256"},{"name":"user","type":"address","internalType":"address"},{"name":"userId","type":"string","internalType":"string"},{"name":"requestId","type":"uint256","internalType":"uint256"},{"name":"donationId","type":"uint256","internalType":"uint256"},{"name":"role","type":"string","internalType":"string"},{"name":"organizationName","type":"string","internalType":"string"},{"name":"contact","type":"string","internalType":"string"},{"name":"scanned","type":"bool","internalType":"bool"}]}],"stateMutability":"view"},{"type":"function","name":"allRequest","inputs":[{"name":"","type":"uint256","internalType":"uint256"}],"outputs":[{"name":"id","type":"uint256","internalType":"uint256"},{"name":"name","type":"string","internalType":"string"},{"name":"userId","type":"string","internalType":"string"},{"name":"deliveredId","type":"string","internalType":"string"},{"name":"allocaterName","type":"string","internalType":"string"},{"name":"requester","type":"address","internalType":"address"},{"name":"needType","type":"string","internalType":"string"},{"name":"riskLevel","type":"uint8","internalType":"uint8"},{"name":"severity","type":"string","internalType":"string"},{"name":"description","type":"string","internalType":"string"},{"name":"survivorType","type":"string","internalType":"string"},{"name":"survivorCount","type":"uint256","internalType":"uint256"},{"name":"timestamp","type":"uint256","internalType":"uint256"},{"name":"latitude","type":"string","internalType":"string"},{"name":"longitude","type":"string","internalType":"string"},{"name":"disasterType","type":"string","internalType":"string"},{"name":"evidenceCID","type":"string","internalType":"string"},{"name":"phone","type":"string","internalType":"string"},{"name":"upi","type":"string","internalType":"string"},{"name":"fulfilled","type":"bool","internalType":"bool"},{"name":"active","type":"bool","internalType":"bool"},{"name":"isFunds","type":"bool","internalType":"bool"},{"name":"allocated","type":"bool","internalType":"bool"},{"name":"cryptoEscrowWei","type":"uint256","internalType":"uint256"},{"name":"fiatRecordedPaise","type":"uint256","internalType":"uint256"}],"stateMutability":"view"},{"type":"function","name":"donate","inputs":[{"name":"","type":"uint256","internalType":"uint256"}],"outputs":[{"name":"id","type":"uint256","internalType":"uint256"},{"name":"name","type":"string","internalType":"string"},{"name":"userId","type":"string","internalType":"string"},{"name":"donor","type":"address","internalType":"address"},{"name":"latitude","type":"string","internalType":"string"},{"name":"longitude","type":"string","internalType":"string"},{"name":"donorRole","type":"string","internalType":"string"},{"name":"disasterImg","type":"string","internalType":"string"},{"name":"donationType","type":"string","internalType":"string"},{"name":"requesterName","type":"string","internalType":"string"},{"name":"requestId","type":"uint256","internalType":"uint256"},{"name":"amountWei","type":"uint256","internalType":"uint256"},{"name":"amountPaise","type":"uint256","internalType":"uint256"},{"name":"peopleCount","type":"uint256","internalType":"uint256"},{"name":"timestamp","type":"uint256","internalType":"uint256"},{"name":"validUntil","type":"uint256","internalType":"uint256"},{"name":"delivered","type":"bool","internalType":"bool"},{"name":"walletAddress","type":"string","internalType":"string"},{"name":"helperCount","type":"uint256","internalType":"uint256"},{"name":"helpRequired","type":"bool","internalType":"bool"}],"stateMutability":"view"},{"type":"function","name":"donateCrypto","inputs":[{"name":"requestId","type":"uint256","internalType":"uint256"},{"name":"name","type":"string","internalType":"string"},{"name":"userId","type":"string","internalType":"string"},{"name":"role","type":"string","internalType":"string"},{"name":"donationType","type":"string","internalType":"string"},{"name":"walletAddress","type":"string","internalType":"string"}],"outputs":[{"name":"","type":"uint256","internalType":"uint256"}],"stateMutability":"payable"},{"type":"function","name":"donateFiat","inputs":[{"name":"requestId","type":"uint256","internalType":"uint256"},{"name":"name","type":"string","internalType":"string"},{"name":"userId","type":"string","internalType":"string"},{"name":"role","type":"string","internalType":"string"},{"name":"donationType","type":"string","internalType":"string"},{"name":"amountPaise","type":"uint256","internalType":"uint256"},{"name":"walletAddress","type":"string","internalType":"string"}],"outputs":[{"name":"","type":"uint256","internalType":"uint256"}],"stateMutability":"nonpayable"},{"type":"function","name":"donateGoods","inputs":[{"name":"requestId","type":"uint256","internalType":"uint256"},{"name":"name","type":"string","internalType":"string"},{"name":"role","type":"string","internalType":"string"},{"name":"donationType","type":"string","internalType":"string"},{"name":"wallet","type":"string","internalType":"string"},{"name":"help","type":"bool","internalType":"bool"},{"name":"userId","type":"string","internalType":"string"}],"outputs":[{"name":"","type":"uint256","internalType":"uint256"}],"stateMutability":"nonpayable"},{"type":"function","name":"donationHelperIndex","inputs":[{"name":"","type":"string","internalType":"string"}],"outputs":[{"name":"","type":"uint256","internalType":"uint256"}],"stateMutability":"view"},{"type":"function","name":"donationVerification","inputs":[{"name":"","type":"address","internalType":"address"},{"name":"","type":"uint256","internalType":"uint256"}],"outputs":[{"name":"","type":"uint256","internalType":"uint256"}],"stateMutability":"view"},{"type":"function","name":"donatorHelper","inputs":[{"name":"requestId","type":"uint256","internalType":"uint256"},{"name":"userId","type":"string","internalType":"string"},{"name":"donationId","type":"uint256","internalType":"uint256"},{"name":"role","type":"string","internalType":"string"},{"name":"organizationName","type":"string","internalType":"string"},{"name":"contact","type":"string","internalType":"string"}],"outputs":[],"stateMutability":"nonpayable"},{"type":"function","name":"getAllDonation","inputs":[],"outputs":[{"name":"","type":"tuple[]","internalType":"struct AidModule.Donation[]","components":[{"name":"id","type":"uint256","internalType":"uint256"},{"name":"name","type":"string","internalType":"string"},{"name":"userId","type":"string","internalType":"string"},{"name":"donor","type":"address","internalType":"address"},{"name":"latitude","type":"string","internalType":"string"},{"name":"longitude","type":"string","internalType":"string"},{"name":"donorRole","type":"string","internalType":"string"},{"name":"disasterImg","type":"string","internalType":"string"},{"name":"donationType","type":"string","internalType":"string"},{"name":"requesterName","type":"string","internalType":"string"},{"name":"requestId","type":"uint256","internalType":"uint256"},{"name":"amountWei","type":"uint256","internalType":"uint256"},{"name":"amountPaise","type":"uint256","internalType":"uint256"},{"name":"peopleCount","type":"uint256","internalType":"uint256"},{"name":"timestamp","type":"uint256","internalType":"uint256"},{"name":"validUntil","type":"uint256","internalType":"uint256"},{"name":"delivered","type":"bool","internalType":"bool"},{"name":"walletAddress","type":"string","internalType":"string"},{"name":"helperCount","type":"uint256","internalType":"uint256"},{"name":"helpRequired","type":"bool","internalType":"bool"},{"name":"helpers","type":"string[]","internalType":"string[]"}]}],"stateMutability":"view"},{"type":"function","name":"getAllHelpRequest","inputs":[],"outputs":[{"name":"","type":"tuple[]","internalType":"struct AidModule.HelpRequest[]","components":[{"name":"id","type":"uint256","internalType":"uint256"},{"name":"name","type":"string","internalType":"string"},{"name":"userId","type":"string","internalType":"string"},{"name":"deliveredId","type":"string","internalType":"string"},{"name":"allocaterName","type":"string","internalType":"string"},{"name":"requester","type":"address","internalType":"address"},{"name":"needType","type":"string","internalType":"string"},{"name":"riskLevel","type":"uint8","internalType":"uint8"},{"name":"severity","type":"string","internalType":"string"},{"name":"description","type":"string","internalType":"string"},{"name":"survivorType","type":"string","internalType":"string"},{"name":"survivorCount","type":"uint256","internalType":"uint256"},{"name":"timestamp","type":"uint256","internalType":"uint256"},{"name":"latitude","type":"string","internalType":"string"},{"name":"longitude","type":"string","internalType":"string"},{"name":"disasterType","type":"string","internalType":"string"},{"name":"evidenceCID","type":"string","internalType":"string"},{"name":"phone","type":"string","internalType":"string"},{"name":"upi","type":"string","internalType":"string"},{"name":"fulfilled","type":"bool","internalType":"bool"},{"name":"active","type":"bool","internalType":"bool"},{"name":"isFunds","type":"bool","internalType":"bool"},{"name":"allocated","type":"bool","internalType":"bool"},{"name":"cryptoEscrowWei","type":"uint256","internalType":"uint256"},{"name":"fiatRecordedPaise","type":"uint256","internalType":"uint256"}]}],"stateMutability":"view"},{"type":"function","name":"getPendingTask","inputs":[{"name":"wallet","type":"string","internalType":"string"}],"outputs":[{"name":"","type":"tuple[]","internalType":"struct AidModule.HelpRequest[]","components":[{"name":"id","type":"uint256","internalType":"uint256"},{"name":"name","type":"string","internalType":"string"},{"name":"userId","type":"string","internalType":"string"},{"name":"deliveredId","type":"string","internalType":"string"},{"name":"allocaterName","type":"string","internalType":"string"},{"name":"requester","type":"address","internalType":"address"},{"name":"needType","type":"string","internalType":"string"},{"name":"riskLevel","type":"uint8","internalType":"uint8"},{"name":"severity","type":"string","internalType":"string"},{"name":"description","type":"string","internalType":"string"},{"name":"survivorType","type":"string","internalType":"string"},{"name":"survivorCount","type":"uint256","internalType":"uint256"},{"name":"timestamp","type":"uint256","internalType":"uint256"},{"name":"latitude","type":"string","internalType":"string"},{"name":"longitude","type":"string","internalType":"string"},{"name":"disasterType","type":"string","internalType":"string"},{"name":"evidenceCID","type":"string","internalType":"string"},{"name":"phone","type":"string","internalType":"string"},{"name":"upi","type":"string","internalType":"string"},{"name":"fulfilled","type":"bool","internalType":"bool"},{"name":"active","type":"bool","internalType":"bool"},{"name":"isFunds","type":"bool","internalType":"bool"},{"name":"allocated","type":"bool","internalType":"bool"},{"name":"cryptoEscrowWei","type":"uint256","internalType":"uint256"},{"name":"fiatRecordedPaise","type":"uint256","internalType":"uint256"}]}],"stateMutability":"view"},{"type":"function","name":"getProcessedRequests","inputs":[],"outputs":[{"name":"","type":"tuple[]","internalType":"struct AidModule.HelpRequest[]","components":[{"name":"id","type":"uint256","internalType":"uint256"},{"name":"name","type":"string","internalType":"string"},{"name":"userId","type":"string","internalType":"string"},{"name":"deliveredId","type":"string","internalType":"string"},{"name":"allocaterName","type":"string","internalType":"string"},{"name":"requester","type":"address","internalType":"address"},{"name":"needType","type":"string","internalType":"string"},{"name":"riskLevel","type":"uint8","internalType":"uint8"},{"name":"severity","type":"string","internalType":"string"},{"name":"description","type":"string","internalType":"string"},{"name":"survivorType","type":"string","internalType":"string"},{"name":"survivorCount","type":"uint256","internalType":"uint256"},{"name":"timestamp","type":"uint256","internalType":"uint256"},{"name":"latitude","type":"string","internalType":"string"},{"name":"longitude","type":"string","internalType":"string"},{"name":"disasterType","type":"string","internalType":"string"},{"name":"evidenceCID","type":"string","internalType":"string"},{"name":"phone","type":"string","internalType":"string"},{"name":"upi","type":"string","internalType":"string"},{"name":"fulfilled","type":"bool","internalType":"bool"},{"name":"active","type":"bool","internalType":"bool"},{"name":"isFunds","type":"bool","internalType":"bool"},{"name":"allocated","type":"bool","internalType":"bool"},{"name":"cryptoEscrowWei","type":"uint256","internalType":"uint256"},{"name":"fiatRecordedPaise","type":"uint256","internalType":"uint256"}]}],"stateMutability":"view"},{"type":"function","name":"hasPendingDonation","inputs":[{"name":"","type":"address","internalType":"address"}],"outputs":[{"name":"","type":"bool","internalType":"bool"}],"stateMutability":"view"},{"type":"function","name":"helpRequestSubmit","inputs":[{"name":"name","type":"string","internalType":"string"},{"name":"userId","type":"string","internalType":"string"},{"name":"requestType","type":"string","internalType":"string"},{"name":"riskLevel","type":"uint8","internalType":"uint8"},{"name":"severity","type":"string","internalType":"string"},{"name":"description","type":"string","internalType":"string"},{"name":"latitude","type":"string","internalType":"string"},{"name":"longitude","type":"string","internalType":"string"},{"name":"disasterType","type":"string","internalType":"string"},{"name":"ipfsUrl","type":"string","internalType":"string"},{"name":"phone","type":"string","internalType":"string"},{"name":"upi","type":"string","internalType":"string"},{"name":"survivor","type":"string","internalType":"string"},{"name":"count","type":"uint256","internalType":"uint256"}],"outputs":[{"name":"","type":"uint256","internalType":"uint256"}],"stateMutability":"nonpayable"},{"type":"function","name":"helper","inputs":[{"name":"","type":"uint256","internalType":"uint256"}],"outputs":[{"name":"id","type":"uint256","internalType":"uint256"},{"name":"user","type":"address","internalType":"address"},{"name":"userId","type":"string","internalType":"string"},{"name":"requestId","type":"uint256","internalType":"uint256"},{"name":"donationId","type":"uint256","internalType":"uint256"},{"name":"role","type":"string","internalType":"string"},{"name":"organizationName","type":"string","internalType":"string"},{"name":"contact","type":"string","internalType":"string"},{"name":"scanned","type":"bool","internalType":"bool"}],"stateMutability":"view"},{"type":"function","name":"helperVerification","inputs":[{"name":"","type":"address","internalType":"address"},{"name":"","type":"uint256","internalType":"uint256"}],"outputs":[{"name":"","type":"uint256","internalType":"uint256"}],"stateMutability":"view"},{"type":"function","name":"nextDonationId","inputs":[],"outputs":[{"name":"","type":"uint256","internalType":"uint256"}],"stateMutability":"view"},{"type":"function","name":"nextHelperId","inputs":[],"outputs":[{"name":"","type":"uint256","internalType":"uint256"}],"stateMutability":"view"},{"type":"function","name":"nextRequestId","inputs":[],"outputs":[{"name":"","type":"uint256","internalType":"uint256"}],"stateMutability":"view"},{"type":"function","name":"operator","inputs":[],"outputs":[{"name":"","type":"address","internalType":"address"}],"stateMutability":"view"},{"type":"function","name":"owner","inputs":[],"outputs":[{"name":"","type":"address","internalType":"address"}],"stateMutability":"view"},{"type":"function","name":"pendingTask","inputs":[{"name":"","type":"string","internalType":"string"}],"outputs":[{"name":"","type":"uint256","internalType":"uint256"}],"stateMutability":"view"},{"type":"function","name":"setOperator","inputs":[{"name":"_op","type":"address","internalType":"address"}],"outputs":[],"stateMutability":"nonpayable"},{"type":"function","name":"toggleHelp","inputs":[{"name":"help","type":"bool","internalType":"bool"},{"name":"wallet","type":"string","internalType":"string"}],"outputs":[],"stateMutability":"nonpayable"},{"type":"function","name":"transferOwnership","inputs":[{"name":"newOwner","type":"address","internalType":"address"}],"outputs":[],"stateMutability":"nonpayable"},{"type":"function","name":"verifyDelivery","inputs":[{"name":"requestId","type":"uint256","internalType":"uint256"}],"outputs":[],"stateMutability":"nonpayable"},{"type":"function","name":"verifyDonationIndex","inputs":[{"name":"","type":"address","internalType":"address"},{"name":"","type":"uint256","internalType":"uint256"}],"outputs":[{"name":"","type":"bool","internalType":"bool"}],"stateMutability":"view"},{"type":"function","name":"verifyHelperIndex","inputs":[{"name":"","type":"address","internalType":"address"},{"name":"","type":"uint256","internalType":"uint256"}],"outputs":[{"name":"","type":"bool","internalType":"bool"}],"stateMutability":"view"},{"type":"function","name":"verifyPendingTask","inputs":[{"name":"","type":"string","internalType":"string"}],"outputs":[{"name":"","type":"bool","internalType":"bool"}],"stateMutability":"view"},{"type":"event","name":"OperatorUpdated","inputs":[{"name":"operator","type":"address","indexed":true,"internalType":"address"}],"anonymous":false},{"type":"event","name":"OwnershipTransferred","inputs":[{"name":"from","type":"address","indexed":true,"internalType":"address"},{"name":"to","type":"address","indexed":true,"internalType":"address"}],"anonymous":false}],"bytecode":{"object":"0x60808060405234605d575f80546001600160a01b031916339081178255907f8be0079c531659141344cd1fd0a4f28419497f9722a3daafe3b4186f6b6457e08180a3600180555f6003555f6004555f6005556141c790816100628239f35b5f80fdfe6105606040526004361015610012575f80fd5b5f3560e01c80631f12f886146126e157806321bdc2d2146126ae57806323675c4714612678578063252c4fea1461254757806336e455e71461246757806352e9a1a014612000578063570ca73514611fd85780636a84a98514611fbb578063734cd44c14611f7257806380043042146118685780638d9527bd146115885780638da5cb5b146115615780638e38ed85146110c0578063a62ef75b14611088578063a72b193014611040578063aa282b3b14610ffc578063af22629714610cd6578063af609f0814610acb578063b3ab15fb14610a22578063bf15142a146109ef578063c24cdede14610957578063c4f82d241461093a578063c6360426146108f6578063d16582ed1461070d578063d84edce3146106f0578063d8ee3139146106b3578063dabf7ec414610589578063de0778c014610540578063f14faf6f146102105763f2fde38b14610164575f80fd5b3461020c57602036600319011261020c5761017d612aeb565b5f546001600160a01b03811691610195338414614159565b6001600160a01b03169182156101da5782907f8be0079c531659141344cd1fd0a4f28419497f9722a3daafe3b4186f6b6457e05f80a36001600160a01b031916175f55005b60405162461bcd60e51b815260206004820152600a6024820152692d32b9379037bbb732b960b11b6044820152606490fd5b5f80fd5b3461020c57602036600319011261020c5760043560065481101561020c5761023790612c06565b5061016081905280546040516101208190529091610259908290600101612b69565b03610120519061026891612a0e565b60405161014081905261016051610283908290600201612b69565b03610140519061029291612a0e565b61016051600381015460405192916001600160a01b039091169083906102bc908290600401612b69565b036102c79084612a0e565b60405192838061016051600501906102de91612b69565b036102e99085612a0e565b604051938480610160516006019061030091612b69565b0361030b9086612a0e565b604051948580610160516007019061032291612b69565b0361032d9087612a0e565b6040518080610160516008019061034391612b69565b0361034e9082612a0e565b604051908180610160516009019061036591612b69565b036103709083612a0e565b61016051600a015460805261016051600b01549761016051600c01549361016051600d01549561016051600e01549761016051600f015499610160516010015460ff169b60405160a05260a05160a05161016051601101906103d191612b69565b0360a051906103df91612a0e565b610160516012015461010052610160516013015460ff1660e05260405160c05260c0515260c051602001610280905260c0516102800161012051906104239161276d565b60c051810360c05160400152610140519061043d9161276d565b9060c0516060015260c051810360c0516080015261045a9161276d565b60c051810360c05160a0015261046f9161276d565b60c051810360c05160c001526104849161276d565b60c051810360c05160e001526104999161276d565b60c051810360c05161010001526104af9161276d565b60c051810360c05161012001526104c59161276d565b9560805160c051610140015260c051610160015260c051610180015260c0516101a0015260c0516101c0015260c0516101e00152151560c051610200015260c051810360c051610220015260a0519061051d9161276d565b6101005160c051610240015260e051151560c051610260015260c051900360c051f35b3461020c57604036600319011261020c576001600160a01b03610561612aeb565b165f52600c60205260405f206024355f52602052602060ff60405f2054166040519015158152f35b3461020c57602036600319011261020c5760043560085481101561020c576105b090612bea565b50805460018201546040516001600160a01b03909116926106a6906105e3836105dc8160028501612b69565b0384612a0e565b610698600382015461068a60048401549160405161060f816106088160058a01612b69565b0382612a0e565b6040519361062b856106248160068b01612b69565b0386612a0e565b61067260ff60086040519961064e8b6106478160078501612b69565b038c612a0e565b015416996040519c8d9c8d5260208d015261012060408d01526101208c019061276d565b9260608b015260808a015288820360a08a015261276d565b9086820360c088015261276d565b9084820360e086015261276d565b9015156101008301520390f35b3461020c57602036600319011261020c576001600160a01b036106d4612aeb565b165f52600f602052602060ff60405f2054166040519015158152f35b3461020c575f36600319011261020c576020600454604051908152f35b3461020c575f36600319011261020c5760075461072981612c22565b906107376040519283612a0e565b808252601f1961074682612c22565b015f5b81811061082b5750505f5b81811061076d57604051806107698582612791565b0390f35b61077f61077982612b01565b50612c39565b6107898285613ec0565b526107948184613ec0565b506102606107a28285613ec0565b510151151580610813575b806107d8575b906001916107c2575b01610754565b5f6102806107d08387613ec0565b5101526107bc565b506101806107e68285613ec0565b510151906206978082018092116107ff579042116107b3565b634e487b7160e01b5f52601160045260245ffd5b506102a06108218285613ec0565b51015115156107ad565b60209060405161083a816129d6565b5f815260608382015260606040820152606080820152606060808201525f60a0820152606060c08201525f60e08201526060610100820152606061012082015260606101408201525f6101608201525f61018082015260606101a082015260606101c082015260606101e08201526060610200820152606061022082015260606102408201525f6102608201525f6102808201525f6102a08201525f6102c08201525f6102e08201525f61030082015282828701015201610749565b3461020c57604036600319011261020c576001600160a01b03610917612aeb565b165f52600d60205260405f206024355f52602052602060405f2054604051908152f35b3461020c575f36600319011261020c576020600554604051908152f35b3461020c57604036600319011261020c57600435801515810361020c576024356001600160401b03811161020c57610993903690600401612abe565b60ff60409392935182858237602081848101600a81520301902054166109b557005b6109da8160206109ed9560139460405193849283378101600981520301902054612c06565b50019060ff801983541691151516179055565b005b3461020c5760208080610a0136612a80565b604051928184925191829101835e8101601081520301902054604051908152f35b3461020c57602036600319011261020c57610a3b612aeb565b610a4f60018060a01b035f54163314614159565b6001600160a01b03168015610a9657600280546001600160a01b031916821790557fb3b3f5f64ab192e4b5fefde1f51ce9733bbdcf831951543b325aebd49cc27ec45f80a2005b60405162461bcd60e51b815260206004820152600d60248201526c2d32b9379037b832b930ba37b960991b6044820152606490fd5b3461020c575f36600319011261020c57600854610ae781612c22565b90610af56040519283612a0e565b80825260085f9081526020830191907ff3f7a9fe364faab93b216da50a3214154f22a0a2b415b23a84c8169e8b636ee3835b838310610c1a57848660405191829160208301906020845251809152604083019060408160051b85010192915f905b828210610b6557505050500390f35b919360019193955060208091603f1989820301855287519081518152848060a01b0383830151168382015261010080610c02610bf0610bde610bb86040880151610120604089015261012088019061276d565b606088015160608801526080880151608088015260a088015187820360a089015261276d565b60c087015186820360c088015261276d565b60e086015185820360e087015261276d565b93015115159101529601920192018594939192610b56565b60096020600192604051610c2d816129f2565b85548152848060a01b03858701541683820152604051610c54816106088160028b01612b69565b60408201526003860154606082015260048601546080820152604051610c81816106088160058b01612b69565b60a0820152604051610c9a816106088160068b01612b69565b60c0820152604051610cb3816106088160078b01612b69565b60e082015260ff6008870154161515610100820152815201920192019190610b27565b3461020c5760e036600319011261020c576004356024356001600160401b03811161020c57610d09903690600401612abe565b906044356001600160401b03811161020c57610d29903690600401612abe565b9390916064356001600160401b03811161020c57610d4b903690600401612abe565b9490956084356001600160401b03811161020c57610d6d903690600401612abe565b96909560a4359283151580940361020c5760c435996001600160401b038b1161020c57610da1610e049b3690600401612abe565b949093610dad8a612b01565b50936013850163010000008154610dc960ff8260081c166134cb565b335f52600f602052610de260ff60405f20541615613db1565b63ff0000001916179055610dfa898b60048801613dfd565b6004549d8e613516565b600455600b85015495600c860154976206978089018099116107ff578f9b610e2a613524565b9b6040519d8e610e39816129ba565b523690610e4592612a4a565b60208d01523690610e5592612a4a565b60408b01523360608b01526040518080600d880190610e7391612b69565b03610e7e9082612a0e565b60808b015260405180610e9481600e8901612b69565b03610e9f9082612a0e565b60a08b01523690610eaf92612a4a565b60c089015260405180610ec58160108701612b69565b03610ed09082612a0e565b60e08901523690610ee092612a4a565b61010087015260405180600181930190610ef991612b69565b03610f049082612a0e565b6101208601528561014086015261016085015f905261018085015f90526101a0850152426101c08501526101e084015261020083015f905236610f48908787612a4a565b6102208401525f610240840152610260830152610280820152610f6a90613557565b335f52600f60205260405f2060ff198154166001179055335f52600b60205260405f20815f526020528360405f2055335f52600c60205260405f20905f5260205260405f2060ff19815416600117905582604051838382378084810160098152036020019020558160405192839283378101600a815203602001902060ff198154166001179055604051908152602090f35b3461020c57604036600319011261020c576001600160a01b0361101d612aeb565b165f52600b60205260405f206024355f52602052602060405f2054604051908152f35b3461020c57602036600319011261020c576004356001600160401b03811161020c5761107c611076610769923690600401612abe565b90613ed4565b60405191829182612791565b3461020c57602060ff818061109c36612a80565b604051928184925191829101835e8101600a81520301902054166040519015158152f35b3461020c57602036600319011261020c5760043560075481101561020c576110e790612b01565b5061052081905280546040516104a08190529091611109908290600101612b69565b036104a0519061111891612a0e565b6040516104c081905261052051611133908290600201612b69565b036104c0519061114291612a0e565b6040516105008190526105205161115d908290600301612b69565b03610500519061116c91612a0e565b6040518080610520516004019061118291612b69565b0361118d9082612a0e565b6105205160058101546040516001600160a01b039091169181906111b5908290600601612b69565b036111c09082612a0e565b610520516007015460ff1690604051808061052051600801906111e291612b69565b036111ed9082612a0e565b6040518080610520516009019061120391612b69565b0361120e9082612a0e565b60405191828061052051600a019061122591612b69565b036112309084612a0e565b61052051600b01549461052051600c01549460405197888061052051600d019061125991612b69565b03611264908a612a0e565b604051998a8061052051600e019061127b91612b69565b03611286908c612a0e565b6040519b8c808061052051600f019061129e91612b69565b036112a891612a0e565b604051610400819052610520516112c3908290601001612b69565b0361040051906112d291612a0e565b604051610420819052610520516112ed908290601101612b69565b0361042051906112fc91612a0e565b60405161054081905261052051611317908290601201612b69565b03610540519061132691612a0e565b61052051601301546104805261052051601401546104e05261052051601501546104605260405161044052610440515261044051602001610320905261044051610320016104a051906113789161276d565b61044051810361044051604001526104c051906113949161276d565b610440518103610440516060015261050051906113b09161276d565b61044051810361044051608001526113c79161276d565b906104405160a001526104405181036104405160c001526113e79161276d565b906104405160e001526104405181036104405161010001526114089161276d565b6104405181036104405161012001526114209161276d565b6104405181036104405161014001526114389161276d565b91610440516101600152610440516101800152610440518103610440516101a001526114639161276d565b610440518103610440516101c0015261147b9161276d565b610440518103610440516101e001526114939161276d565b61044051810361044051610200015261040051906114b09161276d565b61044051810361044051610220015261042051906114cd9161276d565b61044051810361044051610240015261054051906114ea9161276d565b6104805160ff1615156104405161026001526104805160081c60ff1615156104405161028001526104805160101c60ff161515610440516102a001526104805160181c60ff161515610440516102c001526104e051610440516102e001526104605161044051610300015261044051900361044051f35b3461020c575f36600319011261020c575f546040516001600160a01b039091168152602090f35b3461020c5760c036600319011261020c576004356024356001600160401b03811161020c576115bb903690600401612abe565b90604435916064356001600160401b03811161020c576115df903690600401612abe565b936084356001600160401b03811161020c576115ff903690600401612abe565b909560a4356001600160401b03811161020c57611620903690600401612abe565b949097335f52600f60205261163c60ff60405f20541615613db1565b601461164786612c06565b50601281016116568154613516565b905501958654600160401b811015611854578060016116789201895588612f3c565b9490946118415761168b898b8e97613dfd565b6005549a6116988c613516565b600555604051936116a8856129f2565b8c85523360208601908152956116bf368d8f612a4a565b936040870194855260608701988952608087019a8b5236906116e092612a4a565b9760a0860198895236906116f392612a4a565b9260c08501938452369061170692612a4a565b9160e084019283526101008401945f8652600854600160401b811015611854578060016117369201600855612bea565b9890986118415794518855516001880180546001600160a01b0319166001600160a01b039290921691909117905590516117ca976008966117b4956117aa94936117a09391929061178a9060028d01612fac565b5160038b01555160048a01555160058901612fac565b5160068701612fac565b5160078501612fac565b51151591019060ff801983541691151516179055565b545f198101929083116107ff576020908260405193849283378101601081520301902055335f52600f60205260405f20600160ff19825416179055335f52600d60205260405f20825f5260205260405f2055335f52600e60205260405f20905f5260205260405f20600160ff198254161790555f80f35b634e487b7160e01b5f525f60045260245ffd5b634e487b7160e01b5f52604160045260245ffd5b3461020c576101c036600319011261020c576004356001600160401b03811161020c57611899903690600401612abe565b906101e0526024356001600160401b03811161020c576118bd903690600401612abe565b6102a052610340526044356001600160401b03811161020c576118e4903690600401612abe565b61036052906064356103a05260ff6103a051166103a0510361020c576084356001600160401b03811161020c5761191f903690600401612abe565b6103e05260a4356001600160401b03811161020c57611942903690600401612abe565b60c4929192356001600160401b03811161020c57611964903690600401612abe565b93909460e4356001600160401b03811161020c57611986903690600401612abe565b610180526101c052610104356001600160401b03811161020c576119ae903690600401612abe565b6102005261024052610124356001600160401b03811161020c576119d6903690600401612abe565b6102c0526102e052610144356001600160401b03811161020c576119fe903690600401612abe565b610300526103c0526001600160401b03610164351161020c57611a273661016435600401612abe565b61038052610320526001600160401b03610184351161020c57611a503661018435600401612abe565b9290936103605115611f3c57600560ff6103a0511611611f0c57611bae611bce96611b8b611bf59b611b23611bbe975f610280525f61026052604051602081019061036051858337611ab86020826103605181015f838201520301601f198101835282612a0e565b51902060405160208101906466756e647360d81b825260058152611add602582612a0e565b51902014611efb575b60035461022052611af961022051613516565b6003556040516101a052611b0f6101a0516129d6565b610220516101a0515236906101e051612a4a565b60206101a0510152611b3c366102a05161034051612a4a565b60406101a0510152604051611b52602082612a0e565b5f815260606101a0510152604051611b6b602082612a0e565b5f815260806101a05101523360a06101a051015236906103605190612a4a565b60c06101a051015260ff6103a0511660e06101a051015236906103e05190612a4a565b6101006101a05101523691612a4a565b6101206101a05101523691612a4a565b6101406101a05101526101a4356101606101a0510152426101806101a05101523691612a4a565b6101a080510152611c0d36610180516101c051612a4a565b6101c06101a0510152611c27366102005161024051612a4a565b6101e06101a0510152611c41366102c0516102e051612a4a565b6102006101a0510152611c5b36610300516103c051612a4a565b6102206101a0510152611c75366103805161032051612a4a565b6102406101a05101526102605115156102606101a051015260016102806101a05101526102805115156102a06101a05101525f6102c06101a05101525f6102e06101a05101525f6103006101a0510152600754600160401b81101561185457806001611ce49201600755612b01565b611841576101a051518155611d0360206101a051015160018301612fac565b611d1760406101a051015160028301612fac565b611d2b60606101a051015160038301612fac565b611d3f60806101a051015160048301612fac565b6101a05160a08101516005830180546001600160a01b0319166001600160a01b039290921691909117905560c00151611d7b9060068301612fac565b6007810160ff60e06101a05101511660ff19825416179055611da86101006101a051015160088301612fac565b611dbd6101206101a051015160098301612fac565b611dd26101406101a0510151600a8301612fac565b6101a08051610160810151600b840155610180810151600c8401550151611dfc90600d8301612fac565b611e116101c06101a0510151600e8301612fac565b611e266101e06101a0510151600f8301612fac565b611e3b6102006101a051015160108301612fac565b611e506102206101a051015160118301612fac565b611e656102406101a051015160128301612fac565b60138101611e896102606101a05101511515829060ff801983541691151516179055565b6101a05161028081015182546102a08301516102c084015163ffffff001990921692151560081b61ff00169290921791151560101b62ff0000169190911790151560181b63ff00000016179091556102e081015160148301556103000151601590910155604051610220518152602090f35b600161028052600161026052611ae6565b60405162461bcd60e51b81526020600482015260086024820152677269736b20302d3560c01b6044820152606490fd5b60405162461bcd60e51b815260206004820152600e60248201526d6e6565645479706520656d70747960901b6044820152606490fd5b3461020c57604036600319011261020c576001600160a01b03611f93612aeb565b165f52600e60205260405f206024355f52602052602060ff60405f2054166040519015158152f35b3461020c575f36600319011261020c576020600354604051908152f35b3461020c575f36600319011261020c576002546040516001600160a01b039091168152602090f35b3461020c575f36600319011261020c5760065461201c81612c22565b9061202a6040519283612a0e565b80825260065f9081526020830191907ff652222313e28459528d920b65115c16c04f3efc82aaedc97be59f3f377c0d3f835b83831061227557848660405191829160208301906020845251809152604083019060408160051b85010192915f905b82821061209a57505050500390f35b91939092946102806121e861217e61216a6121566121446121326121206120fc6120e98f6102a060208f928f93829f603f19908603019052519d8e8051855201519201526102a08d019061276d565b60408b01518c604081840391015261276d565b60018060a01b0360608b01511660608c015260808a01518b820360808d015261276d565b60a08901518a820360a08c015261276d565b60c088015189820360c08b015261276d565b60e087015188820360e08a015261276d565b61010086015187820361010089015261276d565b61012085015186820361012088015261276d565b6101408401516101408601526101608401516101608601526101808401516101808601526101a08401516101a08601526101c08401516101c08601526101e08401516101e0860152610200840151151561020086015261022084015185820361022087015261276d565b916102408101516102408501526102608101511515610260850152015191610280818303910152815180825260208201906020808260051b8501019401925f5b82811061224a575050505050602080600192960192019201859493919261208b565b9091929394602080612268600193601f19878203018952895161276d565b9701950193929101612228565b604051612281816129ba565b82548152604051612299816106088160018801612b69565b60208201526040516122b2816106088160028801612b69565b60408281019190915260038401546001600160a01b03166060830152516122e0816106088160048801612b69565b60808201526040516122f9816106088160058801612b69565b60a0820152604051612312816106088160068801612b69565b60c082015260405161232b816106088160078801612b69565b60e0820152604051612344816106088160088801612b69565b61010082015260405161235e816106088160098801612b69565b610120820152600a830154610140820152600b830154610160820152600c830154610180820152600d8301546101a0820152600e8301546101c0820152600f8301546101e082015260ff60108401541615156102008201526040516123ca816106088160118801612b69565b610220820152601283015461024082015260ff60138401541615156102608201526014830180546123fa81612c22565b916124086040519384612a0e565b81835260208301905f5260205f20905f905b838210612442575050505060019282602092610280601595015281520192019201919061205c565b60016020819260405161245981610608818a612b69565b81520193019101909161241a565b60c036600319011261020c576024356001600160401b03811161020c57612492903690600401612abe565b6044356001600160401b03811161020c576124b1903690600401612abe565b9190926064356001600160401b03811161020c576124d3903690600401612abe565b906084356001600160401b03811161020c576124f3903690600401612abe565b92909160a435966001600160401b03881161020c5760209861251c61253b993690600401612abe565b98909761252e60026001541415612e3a565b6002600155600435613a53565b60018055604051908152f35b3461020c5760e036600319011261020c576024356001600160401b03811161020c57612577903690600401612abe565b6044356001600160401b03811161020c57612596903690600401612abe565b6064939193356001600160401b03811161020c576125b8903690600401612abe565b6084939193356001600160401b03811161020c576125da903690600401612abe565b9160c4356001600160401b03811161020c576125fa903690600401612abe565b96909560018060a01b036002541633148015612665575b15612631576020996126299960a435976004356137ca565b604051908152f35b60405162461bcd60e51b815260206004820152600c60248201526b2737ba1037b832b930ba37b960a11b6044820152606490fd5b505f546001600160a01b03163314612611565b3461020c57602036600319011261020c5761269860026001541415612e3a565b60026001556126a8600435613144565b60018055005b3461020c57602080806126c036612a80565b604051928184925191829101835e8101600981520301902054604051908152f35b3461020c575f36600319011261020c576007546126fd81612c22565b9061270b6040519283612a0e565b80825260075f9081527fa66cc928b5edb82af9bd49922954155ab7b0942694bea4ce44661d9a8736c688602084015b83831061274f57604051806107698782612791565b6016602060019261275f85612c39565b81520192019201919061273a565b805180835260209291819084018484015e5f828201840152601f01601f1916010190565b602081016020825282518091526040820191602060408360051b8301019401925f915b8383106127c357505050505090565b9091929394602080610100836103008061296161294d6129396129258f6128fd6128d18f8f60019f612911956128bd936128a893603f19908403019052519d8e80518352602061286661285461284261283061288a948601516020610320908a015261032089019061276d565b604086015188820360408a015261276d565b6060850151878203606089015261276d565b6080840151868203608088015261276d565b60018060a01b0360a08401511660a086015260c083015185820360c087015261276d565b9260e060ff818401511691015201518d61010081840391015261276d565b6101208d01518c61012081840391015261276d565b6101408c01518b82036101408d015261276d565b6101608b01516101608b01526101808b01516101808b01526101a08b01518a82036101a08c015261276d565b6101c08a01518982036101c08b015261276d565b6101e08901518882036101e08a015261276d565b61020088015187820361020089015261276d565b61022087015186820361022088015261276d565b61024086015185820361024087015261276d565b93610260810151151561026085015261028081015115156102808501526102a081015115156102a08501526102c081015115156102c08501526102e08101516102e08501520151910152970193019301919392906127b4565b6102a081019081106001600160401b0382111761185457604052565b61032081019081106001600160401b0382111761185457604052565b61012081019081106001600160401b0382111761185457604052565b90601f801991011681019081106001600160401b0382111761185457604052565b6001600160401b03811161185457601f01601f191660200190565b929192612a5682612a2f565b91612a646040519384612a0e565b82948184528183011161020c578281602093845f960137010152565b602060031982011261020c57600435906001600160401b03821161020c578060238301121561020c57816024612abb93600401359101612a4a565b90565b9181601f8401121561020c578235916001600160401b03831161020c576020838186019501011161020c57565b600435906001600160a01b038216820361020c57565b600754811015612b1d5760075f52601660205f20910201905f90565b634e487b7160e01b5f52603260045260245ffd5b90600182811c92168015612b5f575b6020831014612b4b57565b634e487b7160e01b5f52602260045260245ffd5b91607f1691612b40565b5f9291815491612b7883612b31565b8083529260018116908115612bcd5750600114612b9457505050565b5f9081526020812093945091925b838310612bb3575060209250010190565b600181602092949394548385870101520191019190612ba2565b915050602093945060ff929192191683830152151560051b010190565b600854811015612b1d5760085f52600960205f20910201905f90565b600654811015612b1d5760065f52601560205f20910201905f90565b6001600160401b0381116118545760051b60200190565b90604051612c46816129d6565b6103006015829480548452604051612c65816106088160018601612b69565b6020850152604051612c7e816106088160028601612b69565b6040850152604051612c97816106088160038601612b69565b6060850152604051612cb0816106088160048601612b69565b608085015260058101546001600160a01b031660a0850152604051612cdc816106088160068601612b69565b60c085015260ff60078201541660e0850152604051612d02816106088160088601612b69565b610100850152604051612d1c816106088160098601612b69565b610120850152604051612d368161060881600a8601612b69565b610140850152600b810154610160850152600c810154610180850152604051612d668161060881600d8601612b69565b6101a0850152604051612d808161060881600e8601612b69565b6101c0850152604051612d9a8161060881600f8601612b69565b6101e0850152604051612db4816106088160108601612b69565b610200850152604051612dce816106088160118601612b69565b610220850152604051612de8816106088160128601612b69565b61024085015260ff60138201548181161515610260870152818160081c161515610280870152818160101c1615156102a087015260181c1615156102c085015260148101546102e08501520154910152565b15612e4157565b60405162461bcd60e51b815260206004820152600a6024820152695265656e7472616e637960b01b6044820152606490fd5b15612e7a57565b60405162461bcd60e51b815260206004820152601060248201526f5265717565737420696e61637469766560801b6044820152606490fd5b60405190815f825492612ec484612b31565b9360018116908115612f225750600114612ee9575b5060209250601081520301902090565b9150505f528160205f205f905b838210612f0a57505060209181015f612ed9565b60209192508060019154848701520191018391612ef6565b60ff191684525060209380151502830191505f9050612ed9565b8054821015612b1d575f5260205f2001905f90565b818110612f5c575050565b5f8155600101612f51565b9190601f8111612f7657505050565b612fa0925f5260205f20906020601f840160051c83019310612fa2575b601f0160051c0190612f51565b565b9091508190612f93565b91909182516001600160401b03811161185457612fd381612fcd8454612b31565b84612f67565b6020601f82116001146130125781906130039394955f92613007575b50508160011b915f199060031b1c19161790565b9055565b015190505f80612fef565b601f19821690835f52805f20915f5b81811061305857509583600195969710613040575b505050811b019055565b01515f1960f88460031b161c191690555f8080613036565b9192602060018192868b015181550194019201613021565b91909182811461313f576130848354612b31565b6001600160401b038111611854576130a081612fcd8454612b31565b5f93601f82116001146130da5761300392939482915f926130cf5750508160011b915f199060031b1c19161790565b015490505f80612fef565b601f198216905f5260205f2094835f5260205f20915f5b8181106131275750958360019596971061310f57505050811b019055565b01545f1960f88460031b161c191690555f8080613036565b9192600180602092868b0154815501940192016130f1565b509050565b335f52600c60205260405f20815f5260205260ff60405f2054165f1461327157335f52600b60205260405f20815f5260205261318360405f2054612c06565b5061318d82612b01565b50906012810154600181149081613262575b8115613244575b5061321e575b82600a820154148061320f575b6131c257505050565b6131d56010926003600284019101613070565b01600160ff19825416179055335f52600f60205260405f2060ff198154169055335f52600b60205260405f20905f526020525f6040812055565b5060ff601082015416156131b9565b601382016001815461323560ff8260081c16612e73565b63ff00ffff19161790556131ac565b90501580613253575b5f6131a6565b5060ff6010820154161561324d565b601083015460ff16915061319f565b335f52600e60205260405f20815f5260205260ff60405f2054165f1461347757335f52600d60205260405f20815f526020526132b060405f2054612bea565b506132be6004820154612c06565b50916132c981612b01565b50926012810193600185541480613469575b613443575b506002830160146132f082612eb2565b5492019182545f1981019081116107ff578082106133ea575b5050815480156133d6575f1901906133218284612f3c565b929092611841575f93836133386133479554612b31565b9081613393575b505055612eb2565b55335f52600f60205260405f2060ff198154169055335f52600d60205260405f20905f526020525f604081205581549182156107ff576008925f1901905501600160ff19825416179055565b81601f8893116001146133aa5750555b5f8061333f565b818352602083206133c691601f0160051c810190600101612f51565b80825281602081209155556133a3565b634e487b7160e01b5f52603160045260245ffd5b6134076133fa6106089286612f3c565b5060405192838092612b69565b6134118285612f3c565b61184157816134236020938493612fac565b604051928184925191829101835e81016010815203019020555f80613309565b6013016001815461345960ff8260081c16612e73565b63ff00ffff19161790555f6132e0565b5060ff6010830154166132db565b60405162461bcd60e51b815260206004820152602660248201527f4e6f20646f6e6174696f6e20766572696669636174696f6e20666f756e6420666044820152656f7220796f7560d01b6064820152608490fd5b156134d257565b60405162461bcd60e51b815260206004820152600f60248201526e125b9d985b1a59081c995c5d595cdd608a1b6044820152606490fd5b919082018092116107ff57565b5f1981146107ff5760010190565b60405190613533602083612a0e565b5f80835282815b82811061354657505050565b80606060208093850101520161353a565b600654600160401b8110156118545760018101600655600654811015612b1d5760065f526015027ff652222313e28459528d920b65115c16c04f3efc82aaedc97be59f3f377c0d3f01601461028091835181556135bb602085015160018301612fac565b6135cc604085015160028301612fac565b60608401516003820180546001600160a01b0319166001600160a01b039290921691909117905560808401516136059060048301612fac565b61361660a085015160058301612fac565b61362760c085015160068301612fac565b61363860e085015160078301612fac565b61364a61010085015160088301612fac565b61365c61012085015160098301612fac565b610140840151600a820155610160840151600b820155610180840151600c8201556101a0840151600d8201556101c0840151600e8201556101e0840151600f8201556136be6102008501511515601083019060ff801983541691151516179055565b6136d061022085015160118301612fac565b61024084015160128201556136fb6102608501511515601383019060ff801983541691151516179055565b0191015190815191600160401b8311611854578154838355808410613753575b50602001905f5260205f205f915b8383106137365750505050565b600160208261374783945186612fac565b01920192019190613729565b825f528360205f2091820191015b81811061376e575061371b565b60019061377b8154612b31565b80613788575b5001613761565b601f8111831461379d57505f81555b5f613781565b6137b990825f5283601f60205f20920160051c82019101612f51565b805f525f6020812081835555613797565b969094959a919397999298998a15613a23576137e588612b01565b50966137fa60ff60138a015460081c166134cb565b5f5b60065481101561389e5789600a61381283612c06565b500154148061385e575b613828576001016137fc565b9b9a50505050505050505050506138599250613852600c61384884612c06565b5001918254613509565b9055612c06565b505490565b50600261387e61386d83612c06565b506106086040518094819301612b69565b602081519101206138918d8d3691612a4a565b602081519101201461381c565b50909192959894979396999b6138b89c6004549d8e613516565b600455600c8c0154966206978088018098116107ff578e9b6138d8613524565b9b6040519d8e6138e7816129ba565b5236906138f392612a4a565b60208d0152369061390392612a4a565b60408b01523360608b01528a60405180600d8193019061392291612b69565b0361392d9082612a0e565b60808b01526040518061394381600e8f01612b69565b0361394e9082612a0e565b60a08b0152369061395e92612a4a565b60c0890152604051806139748160108d01612b69565b0361397f9082612a0e565b60e0890152369061398f92612a4a565b6101008701526040516139a3602082612a0e565b5f815261012087015261014086015261016085015f9052610180850160019052866101a0860152426101c08601526101e085015261020084015f905236906139ea92612a4a565b6102208301525f6102408301819052610260830152610280820152613a0e90613557565b60150190815490613a1e91613509565b905590565b60405162461bcd60e51b81526020600482015260086024820152670616d6f756e743d360c41b6044820152606490fd5b98939790959691949992993415613d7e57613a6d8a612b01565b5097613a8260ff60138b015460081c166134cb565b5f808080348d600560018060a01b03910154165af13d15613d79573d613aa781612a2f565b90613ab56040519283612a0e565b81525f60203d92013e5b15613d4257600654151580613d22575b613c82575b6004549b613ae18d613516565b600455600c8a01549a620697808c01809c116107ff578d99613b01613524565b996040519b613b0f8d6129ba565b8c523690613b1c92612a4a565b60208b01523690613b2c92612a4a565b60408901523360608901526040518080600d8c0190613b4a91612b69565b03613b559082612a0e565b608089015260405180613b6b81600e8d01612b69565b03613b769082612a0e565b60a08901523690613b8692612a4a565b60c087015260405180613b9c8160108b01612b69565b03613ba79082612a0e565b60e08701523690613bb792612a4a565b610100850152602095604051613bcd8882612a0e565b5f8152610120860152876101408601523461016086015261018085015f90526101a0850160019052426101c08601526101e085015261020084015f90523690613c1592612a4a565b6102208301525f6102408301819052610260830152610280820152613c3990613557565b60140134815490613c4991613509565b9055335f52600b815260405f20825f5281528260405f2055335f52600c815260405f20915f525260405f2060ff19815416600117905590565b335f52600b60205260405f208b5f52602052613ca160405f2054612c06565b508b600a8201541480613cec575b613cb95750613ad4565b9b505050505050505050905060149150600b8301613cd8348254613509565b905501613ce6348254613509565b90555490565b508c613d15604051613d05816106088160028801612b69565b60208151910120918d3691612a4a565b6020815191012014613caf565b50335f52600c60205260405f208b5f5260205260ff60405f205416613acf565b60405162461bcd60e51b815260206004820152600f60248201526e151c985b9cd9995c8819985a5b1959608a1b6044820152606490fd5b613abf565b60405162461bcd60e51b815260206004820152600b60248201526a139bc8115512081cd95b9d60aa1b6044820152606490fd5b15613db857565b60405162461bcd60e51b815260206004820152601e60248201527f46696e69736820796f75722070656e64696e67207461736b20666972737400006044820152606490fd5b9092916001600160401b03811161185457613e1c81612fcd8454612b31565b5f601f8211600114613e555781906130039394955f92613e4a5750508160011b915f199060031b1c19161790565b013590505f80612fef565b601f19821694835f5260205f20915f5b878110613e9b575083600195969710613e8257505050811b019055565b01355f19600384901b60f8161c191690555f8080613036565b90926020600181928686013581550194019101613e65565b805115612b1d5760200190565b8051821015612b1d5760209160051b010190565b90606060ff60405183858237602081858101600a81520301902054165f1461407657506020613f16928260405193849283378101600981520301902054612c06565b5060ff60108201541661403f57600a613f30910154612b01565b50604080519190613f418184612a0e565b60018352601f19015f5b818110613f74575050613f5d90612c39565b613f6682613eb3565b52613f7081613eb3565b5090565b602090604051613f83816129d6565b5f815260608382015260606040820152606080820152606060808201525f60a0820152606060c08201525f60e08201526060610100820152606061012082015260606101408201525f6101608201525f61018082015260606101a082015260606101c082015260606101e08201526060610200820152606061022082015260606102408201525f6102608201525f6102808201525f6102a08201525f6102c08201525f6102e08201525f61030082015282828701015201613f4b565b60405162461bcd60e51b815260206004820152600f60248201526e4e6f2070656e64696e67207461736b60881b6044820152606490fd5b91505060405190614088602083612a0e565b5f82525f90815b82811061409c5750505090565b6020906040516140ab816129d6565b5f8152838382015283604082015283808201528360808201525f60a08201528360c08201525f60e08201528361010082015283610120820152836101408201525f6101608201525f610180820152836101a0820152836101c0820152836101e08201528361020082015283610220820152836102408201525f6102608201525f6102808201525f6102a08201525f6102c08201525f6102e08201525f6103008201528282870101520161408f565b1561416057565b60405162461bcd60e51b81526020600482015260096024820152682737ba1037bbb732b960b91b6044820152606490fdfea26469706673582212200ad79f80befe4591ee0a957b1b9f4b3c2ddf5f25766cf02126bd057389d487a364736f6c634300081a0033","linkReferences":{}},"methodIdentifiers":{"allHelper()":"af609f08","allRequest(uint256)":"8e38ed85","donate(uint256)":"f14faf6f","donateCrypto(uint256,string,string,string,string,string)":"36e455e7","donateFiat(uint256,string,string,string,string,uint256,string)":"252c4fea","donateGoods(uint256,string,string,string,string,bool,string)":"af226297","donationHelperIndex(string)":"bf15142a","donationVerification(address,uint256)":"aa282b3b","donatorHelper(uint256,string,uint256,string,string,string)":"8d9527bd","getAllDonation()":"52e9a1a0","getAllHelpRequest()":"1f12f886","getPendingTask(string)":"a72b1930","getProcessedRequests()":"d16582ed","hasPendingDonation(address)":"d8ee3139","helpRequestSubmit(string,string,string,uint8,string,string,string,string,string,string,string,string,string,uint256)":"80043042","helper(uint256)":"dabf7ec4","helperVerification(address,uint256)":"c6360426","nextDonationId()":"d84edce3","nextHelperId()":"c4f82d24","nextRequestId()":"6a84a985","operator()":"570ca735","owner()":"8da5cb5b","pendingTask(string)":"21bdc2d2","setOperator(address)":"b3ab15fb","toggleHelp(bool,string)":"c24cdede","transferOwnership(address)":"f2fde38b","verifyDelivery(uint256)":"23675c47","verifyDonationIndex(address,uint256)":"de0778c0","verifyHelperIndex(address,uint256)":"734cd44c","verifyPendingTask(string)":"a62ef75b"},"id":16}