{"abi":[{"type":"function","name":"DONATION_PERIOD","inputs":[],"outputs":[{"name":"","type":"uint256","internalType":"uint256"}],"stateMutability":"view"},{"type":"function","name":"forecasts","inputs":[{"name":"","type":"uint256","internalType":"uint256"}],"outputs":[{"name":"name","type":"string","internalType":"string"},{"name":"userId","type":"string","internalType":"string"},{"name":"disasterType","type":"string","internalType":"string"},{"name":"riskLevel","type":"uint8","internalType":"uint8"},{"name":"severity","type":"string","internalType":"string"},{"name":"latitude","type":"string","internalType":"string"},{"name":"longitude","type":"string","internalType":"string"},{"name":"timestamp","type":"uint256","internalType":"uint256"},{"name":"ipfsUrl","type":"string","internalType":"string"}],"stateMutability":"view"},{"type":"function","name":"getForecast","inputs":[],"outputs":[{"name":"","type":"tuple[]","internalType":"struct DisasterForecast.Forecast[]","components":[{"name":"name","type":"string","internalType":"string"},{"name":"userId","type":"string","internalType":"string"},{"name":"disasterType","type":"string","internalType":"string"},{"name":"riskLevel","type":"uint8","internalType":"uint8"},{"name":"severity","type":"string","internalType":"string"},{"name":"latitude","type":"string","internalType":"string"},{"name":"longitude","type":"string","internalType":"string"},{"name":"timestamp","type":"uint256","internalType":"uint256"},{"name":"ipfsUrl","type":"string","internalType":"string"}]}],"stateMutability":"view"},{"type":"function","name":"logForecast","inputs":[{"name":"name","type":"string","internalType":"string"},{"name":"userId","type":"string","internalType":"string"},{"name":"_disasterType","type":"string","internalType":"string"},{"name":"_riskLevel","type":"uint8","internalType":"uint8"},{"name":"_severity","type":"string","internalType":"string"},{"name":"_latitude","type":"string","internalType":"string"},{"name":"_longitude","type":"string","internalType":"string"},{"name":"_ipfsUrl","type":"string","internalType":"string"}],"outputs":[],"stateMutability":"nonpayable"}],"bytecode":{"object":"0x60808060405234601557610ecb908161001a8239f35b5f80fdfe6080806040526004361015610012575f80fd5b5f3560e01c9081633c8eb84514610aa2575080638b55a4b814610185578063a4810011146101685763dbd8951b14610048575f80fd5b34610164576020366003190112610164576004355f548110156101645761006e90610d71565b5061007881610df5565b61008460018301610df5565b9161009160028201610df5565b90600381015460ff16600482016100a790610df5565b6100b360058401610df5565b906100c060068501610df5565b926007850154946008016100d390610df5565b956040519889986101208a526101208a016100ed91610cbb565b89810360208b01526100fe91610cbb565b88810360408a015261010f91610cbb565b906060880152868103608088015261012691610cbb565b85810360a087015261013791610cbb565b84810360c086015261014891610cbb565b9060e084015282810361010084015261016091610cbb565b0390f35b5f80fd5b34610164575f366003190112610164576020604051620697808152f35b3461016457610100366003190112610164576004356001600160401b038111610164576101b6903690600401610d1c565b6024356001600160401b038111610164576101d5903690600401610d1c565b906044356001600160401b038111610164576101f5903690600401610d1c565b906064359260ff8416809403610164576084356001600160401b03811161016457610224903690600401610d1c565b60a4356001600160401b03811161016457610243903690600401610d1c565b9060c4356001600160401b03811161016457610263903690600401610d1c565b9560e4356001600160401b03811161016457610283903690600401610d1c565b956040519561029187610cdf565b86526020860194855260408601908152606086019182526080860192835260a0860193845260c0860197885260e086019442865261010087019788525f54600160401b81101561060f578060016102ea92015f55610d71565b979097610a8f57518051906001600160401b03821161060f57819061030f8a54610dbd565b601f8111610a3f575b50602090601f83116001146109dc575f926109d1575b50508160011b915f199060031b1c19161787555b51805160018801916001600160401b03821161060f5781906103648454610dbd565b601f8111610981575b50602090601f831160011461091e575f92610913575b50508160011b915f199060031b1c19161790555b51805160028701916001600160401b03821161060f5781906103b98454610dbd565b601f81116108c3575b50602090601f8311600114610860575f92610855575b50508160011b915f199060031b1c19161790555b60ff6003860191511660ff198254161790556004840190518051906001600160401b03821161060f5781906104218454610dbd565b601f8111610805575b50602090601f83116001146107a2575f92610797575b50508160011b915f199060031b1c19161790555b51805160058401916001600160401b03821161060f5781906104768454610dbd565b601f8111610747575b50602090601f83116001146106e4575f926106d9575b50508160011b915f199060031b1c19161790555b600682019351938451946001600160401b03861161060f576104cb8254610dbd565b601f8111610694575b50602090601f871160011461062e57958091600896975f92610623575b50508160011b915f199060031b1c19161790555b5160078201550190519081516001600160401b03811161060f576105298254610dbd565b601f81116105ca575b50602092601f821160011461056e57928192935f92610563575b50505f19600383901b1c191660019190911b179055005b01519050838061054c565b601f19821693835f52805f20915f5b8681106105b2575083600195961061059a575b505050811b019055005b01515f1960f88460031b161c19169055838080610590565b9192602060018192868501518155019401920161057d565b825f5260205f20601f830160051c81019160208410610605575b601f0160051c01905b8181106105fa5750610532565b5f81556001016105ed565b90915081906105e4565b634e487b7160e01b5f52604160045260245ffd5b0151905087806104f1565b90601f19871691835f52815f20925f5b81811061067c57509160019391896008999a9410610664575b505050811b019055610505565b01515f1960f88460031b161c19169055878080610657565b9293602060018192878601518155019501930161063e565b825f5260205f20601f880160051c810191602089106106cf575b601f0160051c01905b8181106106c457506104d4565b5f81556001016106b7565b90915081906106ae565b015190508780610495565b5f8581528281209350601f198516905b81811061072f5750908460019594939210610717575b505050811b0190556104a9565b01515f1960f88460031b161c1916905587808061070a565b929360206001819287860151815501950193016106f4565b909150835f5260205f20601f840160051c8101916020851061078d575b90601f859493920160051c01905b81811061077f575061047f565b5f8155849350600101610772565b9091508190610764565b015190508880610440565b5f8581528281209350601f198516905b8181106107ed57509084600195949392106107d5575b505050811b019055610454565b01515f1960f88460031b161c191690558880806107c8565b929360206001819287860151815501950193016107b2565b909150835f5260205f20601f840160051c8101916020851061084b575b90601f859493920160051c01905b81811061083d575061042a565b5f8155849350600101610830565b9091508190610822565b015190508a806103d8565b5f8581528281209350601f198516905b8181106108ab5750908460019594939210610893575b505050811b0190556103ec565b01515f1960f88460031b161c191690558a8080610886565b92936020600181928786015181550195019301610870565b909150835f5260205f20601f840160051c81019160208510610909575b90601f859493920160051c01905b8181106108fb57506103c2565b5f81558493506001016108ee565b90915081906108e0565b015190508b80610383565b5f8581528281209350601f198516905b8181106109695750908460019594939210610951575b505050811b019055610397565b01515f1960f88460031b161c191690558b8080610944565b9293602060018192878601518155019501930161092e565b909150835f5260205f20601f840160051c810191602085106109c7575b90601f859493920160051c01905b8181106109b9575061036d565b5f81558493506001016109ac565b909150819061099e565b015190508b8061032e565b5f8b81528281209350601f198516905b818110610a275750908460019594939210610a0f575b505050811b018755610342565b01515f1960f88460031b161c191690558b8080610a02565b929360206001819287860151815501950193016109ec565b909150895f5260205f20601f840160051c81019160208510610a85575b90601f859493920160051c01905b818110610a775750610318565b5f8155849350600101610a6a565b9091508190610a5c565b634e487b7160e01b5f525f60045260245ffd5b34610164575f366003190112610164575f546001600160401b03811161060f57610ad260208260051b0183610cfb565b8082525f8080526020830191907f290decd9548b62a8d60345a988386fc84ba6bc95484008f6362f93160ef3e563835b838310610c1357848660405191829160208301906020845251809152604083019060408160051b85010192915f905b828210610b4057505050500390f35b91936001919395506020610c038192603f198a8203018652885190610100610be7610bd5610bc3610ba4610b92610b8288516101208952610120890190610cbb565b8a8901518882038c8a0152610cbb565b60408801518782036040890152610cbb565b60ff606088015116606087015260808701518682036080880152610cbb565b60a086015185820360a0870152610cbb565b60c085015184820360c0860152610cbb565b9260e081015160e0840152015190610100818403910152610cbb565b9601920192018594939192610b31565b60096020600192604051610c2681610cdf565b610c2f86610df5565b8152610c3c858701610df5565b83820152610c4c60028701610df5565b604082015260ff6003870154166060820152610c6a60048701610df5565b6080820152610c7b60058701610df5565b60a0820152610c8c60068701610df5565b60c0820152600786015460e0820152610ca760088701610df5565b610100820152815201920192019190610b02565b805180835260209291819084018484015e5f828201840152601f01601f1916010190565b61012081019081106001600160401b0382111761060f57604052565b90601f801991011681019081106001600160401b0382111761060f57604052565b81601f82011215610164578035906001600160401b03821161060f5760405192610d50601f8401601f191660200185610cfb565b8284526020838301011161016457815f926020809301838601378301015290565b5f54811015610da9575f8080526009919091027f290decd9548b62a8d60345a988386fc84ba6bc95484008f6362f93160ef3e5630191565b634e487b7160e01b5f52603260045260245ffd5b90600182811c92168015610deb575b6020831014610dd757565b634e487b7160e01b5f52602260045260245ffd5b91607f1691610dcc565b9060405191825f825492610e0884610dbd565b8084529360018116908115610e735750600114610e2f575b50610e2d92500383610cfb565b565b90505f9291925260205f20905f915b818310610e57575050906020610e2d928201015f610e20565b6020919350806001915483858901015201910190918492610e3e565b905060209250610e2d94915060ff191682840152151560051b8201015f610e2056fea2646970667358221220598ed16be1d17a36e48a543c0f019f2c4280cd5d65cf90b03eb8e501a9c6d7ff64736f6c634300081a0033","linkReferences":{}},"methodIdentifiers":{"DONATION_PERIOD()":"a4810011","forecasts(uint256)":"dbd8951b","getForecast()":"3c8eb845","logForecast(string,string,string,uint8,string,string,string,string)":"8b55a4b8"},"id":17}